:020000040008F2
:10000000A82A0020315C0800C515080043500800EC
:10001000C7150800C9150800CB150800000000002E
:10002000000000000000000000000000CD150800E6
:10003000CF15080000000000D11508007750080017
:10004000D3150800D5150800D7150800D9150800E4
:10005000DB150800DD150800DF150800E1150800B4
:10006000613B0800E3150800B35008000751080081
:10007000E51508007F3B0800EF2F08001930080045
:10008000E7150800E915080027450800EB150800EA
:10009000ED150800EF150800F1150800C55408001B
:1000A000F3150800F51508008B530800F715080034
:0C00B000F9150800FB150800C315080036
:1000BC0000F5E0700268914203D343689A189142AC
:1000CC0002D380680028F5D17047DFF8600701681B
:1000DC0091B9DFF85C274FF4803181604FF4805187
:1000EC0041604FF0FF31C160016104214161C2F8F0
:1000FC00BC11DFF8401701600120704701F10803C3
:10010C0013F0070305D001F10803C3F1080303F052
:10011C0007035918D21A8161C26042F001034B6087
:10012C00511828234B60DFF804170969C161704727
:10013C002DE9F04F064601F1080083B010F00700DE
:10014C0008BF884607D001F10800C0F1080000F094
:10015C00070000EB010802F1080010F0070006D0C0
:10016C0002F10800C0F1080000F0070082181546E3
:10017C00A5EB0800A0EB030903EB080B43F003000D
:10018C00C8F80400AB4528BF01F012FA2879C00763
:10019C0058BF01F00DFAB9F1100F38BF01F008FA91
:1001AC00B069854209D1F0684844F060C6F818B0CF
:1001BC0040F00100CBF804006DE1706985420BD171
:1001CC00B0684844B060C6F814B040F00101CBF8F8
:1001DC00041040F80B005EE1686800F0030101298F
:1001EC0040F0AD80C008C0000190C00820283AD271
:1001FC00D5F808A0EF680090BD4208BF01F0D8F90F
:10020C00554508BF01F0D4F968680099C008C000D2
:10021C00B0EBC10F18BF01F0CBF9009806EBC00092
:10022C0000F128018A4507D031698A45C0F08280E7
:10023C00DAF80C10A9427DD1574506D1009A3068E6
:10024C00012191408843306076E02830874205D008
:10025C00306987426ED3B868A8426BD1CAF80C706B
:10026C00C7F808A068E0EF68D5F818A0AF420CD02A
:10027C00A8683169884223D3C168A94204BFB96810
:10028C00A9421DD1C760B8601CE005F114000768D5
:10029C0037B905F110000768A7B101E008460768F7
:1002AC0007F114010A68002A02BF07F110010A685D
:1002BC00002AF3D13169884202D30021016001E0A8
:1002CC0001F076F9BAF1000F36D0E86906EB800040
:1002DC0000F5987001688D4208D10760A7B9EA69EA
:1002EC007068012191408843706025E03069824537
:1002FC0008D3DAF81000A84214BFCAF81470CAF870
:10030C00107001E001F054F9B7B13069874211D394
:10031C00C7F818A0296929B1814226BF39618F61BC
:10032C0001F046F9686938B13169884202D37861C5
:10033C00876101E001F03CF9019845198144686836
:10034C004008400068604FEAD90549F00100CBF83D
:10035C00040049F80B90202D23D206EBC50000F1C8
:10036C002807BA46B9F1100F38BF01F021F93068EF
:10037C0020FA05F1C90704D40121A94008433060D3
:10038C0006E0B868316988422CBF824601F010F94A
:10039C00C7F808B0CAF80CB0CBF808A0CBF80C70B2
:1003AC0079E05FEA192108BF002023D0B1F5803F26
:1003BC0028BF1F201ED2A1F58070000C00F0080091
:1003CC008140A1F58052120C02F004029140A1F57B
:1003DC0080431B0CC0F10E0003F00203801AC01AFC
:1003EC00994000EBD130C11D29FA01F101F0010156
:1003FC0001EB4000CBF81C000022CBF81420CBF80A
:10040C00102006EB8001726822FA00F301F5987156
:10041C00DB0707D4012303FA00F010437060C1F826
:10042C0000B01DE01F2809680EBF00204008C0F175
:10043C00190009FA00F000E011464A68D208D2000F
:10044C004A4514D0C20F01EB820202F110034000A6
:10045C001A68002AF0D1306983421AD3C3F800B06D
:10046C00CBF81810CBF80CB0CBF808B013E032690D
:10047C008868914228BF90420BD3C0F80CB0C1F8E9
:10048C0008B0CBF80800CBF80C100020CBF8180003
:10049C0001E001F08DF808F1080000F0FABD2DE93B
:1004AC00FA4D0546DFF88403006884B008B9FFF7FD
:1004BC000CFEDFF878030499806841182F31401E38
:1004CC0021EA00000499814280F0AB8105F5D876D1
:1004DC00B16841B1D5F8B0218018824280F0A18179
:1004EC008142C0F09E8101F083F800281EBF0446B3
:1004FC00D0F8008014F1010F00F09381D5F8B00111
:10050C004044C5F8B0017168814238BF0146716042
:10051C00A86980BB286908B1844200D22C6134617F
:10052C00C6F814800020F06105F12801BF4800686E
:10053C0068624FF0FF3028620020C960896001F1C9
:10054C000802801CD260103192602028F5D3B84884
:10055C00854203D1A8F12802214629E055F8040C64
:10056C00C00805EBC000A0F1080108EB0400401A1C
:10057C00A0F128021CE005F5E071084600E0806857
:10058C00D0B1026843689A189442F8D1027B1207E2
:10059C0012D4AA6903689A420ED347683B449A4224
:1005AC000AD208EB07014160E868A96908EB000270
:1005BC002846FFF7A3FD1EE12869844238BF2C6151
:1005CC00084608EB040100E0806880B102688A42AA
:1005DC00FAD1017B09070AD40460416841444160A7
:1005EC002146049B284606B0BDE8F04DA0E5AF6956
:1005FC0039462846FFF75CFD0168406840180290B8
:10060C002F3800F1080111F0070105D000F10801A5
:10061C00C1F1080101F00701081807F11001884227
:10062C0034BF0097009000980830019004F1080145
:10063C00009800F1180A4FF0000BA8F1280011F0F7
:10064C00070105D004F10801C1F1080101F007010F
:10065C000A19401AAA61E86040F001015160801843
:10066C002821416071480069E861019810F0070089
:10067C0018BF00F09DFF00991B20486005F5E07144
:10068C00B1E80C500198A0E80C503461C6F8148005
:10069C00C6F81CB00198B061029800E08A460722A7
:1006AC00CAF804200AF104010A1D0BF1010B824265
:1006BC00F4D3BBF1020FB8BF00F07AFF0098B84238
:1006CC0000F09980C01BC119C4084A685208520036
:1006DC004A6040F001017960C051202C20D205EB1A
:1006EC00C40101F12806B046102838BF00F060FFA5
:1006FC00286820FA04F1C90704D40121A140084359
:10070C00286006E0B068296988422CBF804600F05A
:10071C004FFFB760C8F80C70C7F80880FE606AE03D
:10072C00010A08BF002223D0B1F5803F28BF1F2249
:10073C001ED2A1F58072120C02F008029140A1F5B4
:10074C0080531B0C03F004039940A1F58044240C46
:10075C00C2F10E0204F00204D21A121BA14002EBE9
:10076C00D131CA1D20FA02F202F0010202EB410261
:10077C00FA6100237B613B6105EB82016B6823FA14
:10078C0002F401F59871E40705D401209040184358
:10079C0068600F601CE01F2A09680EBF0022520817
:1007AC00C2F1190200FA02F200E019464B68DB08AC
:1007BC00DB00834210D0D30F01EB830303F1100451
:1007CC0052002368002BF0D12869844211D3276092
:1007DC00B961FF60BF600EE02A698868914228BF4A
:1007EC00904206D3C7608F60B860F9600020B86192
:1007FC0001E000F0DDFEE8680499814211D2401A54
:10080C00E860A969049A5218AA6140F0010050608E
:10081C00049840F00300486006B001F10800BDE800
:10082C00F08D002006B0BDE8F08D0000E41800202B
:10083C00B81100206859883C2DE9F04D04468846D3
:10084C000026C8F1000B5FEA182008BF002123D056
:10085C00B0F5803F28BF1F211ED2A0F58071090C76
:10086C0001F008018840A0F58052120C02F004023D
:10087C009040A0F580431B0CC1F10E0103F0020364
:10088C00891AC91A984001EBD030C11D28FA01F120
:10089C0001F0010101EB400104EB8100D0F83001C3
:1008AC0030B31F290EBF00224A08C2F1190208FA00
:1008BC0002F2002300E052004568ED08ED00A5EBC4
:1008CC0008055D4503D206465FEA050B0CD0456969
:1008DC004FEAD27E00EB8E00002D00691CBF8542D2
:1008EC002B460028E7D1184600283AD1002E3AD1E1
:1008FC00012088404000414208436168084000F0F4
:10090C00658141420840411E080B00F0100021FA9D
:10091C0000F2510901F00801CA40930803F00403E6
:10092C00DA40550805F002050818EA401818C2F319
:10093C00400E2844704422FA0EF1081804EB800093
:10094C00D0F830010DE008464168C908C900A1EB98
:10095C00080159453CBF8B46064601690029F2D176
:10096C0040690028F0D1002E00F03081A068A0EB87
:10097C000800834580F02A8120698642C0F02481DA
:10098C007068C008C00008EB0B0108EB0605884234
:10099C0018BF00F00DFEAE4280F01681F768D6F855
:1009AC0018A0B7420CD0B0682169884223D3C16823
:1009BC00B14204BFB968B1421DD1C760B8601CE038
:1009CC0006F11400076837B906F110000768A7B1E3
:1009DC0001E00846076807F114010A68002A02BF03
:1009EC0007F110010A68002AF3D12169884202D369
:1009FC000021016001E000F0DBFDBAF1000F38D0FE
:100A0C00F06904EB800000F5987001688E4209D102
:100A1C000760380014D1F269606801219140884365
:100A2C00606026E02069824508D3DAF81000B042F5
:100A3C0014BFCAF81470CAF8107001E000F0B8FDC9
:100A4C00BFB12069874212D3C7F818A0306930B102
:100A5C002169884226BF3861876100F0A9FD706961
:100A6C0038B12169884202D37861876101E000F0D6
:100A7C009FFDBBF1100F0CD208EB0B0040F00300F4
:100A8C00706008EB0B008019416841F00101416076
:100A9C0096E048F0030070604BF0010068604BF882
:100AAC0005B04FEADB0020281DD204EBC00101F198
:100ABC002807216821FA00F2BB46D20705D401228F
:100ACC0002FA00F00843206006E0B8682169884209
:100ADC002CBF834600F06CFDBD60CBF80C50C5F804
:100AEC0008B0EF606CE05FEA1B2108BF002023D048
:100AFC00B1F5803F28BF1F201ED2A1F58070000CDD
:100B0C0000F008008140A1F58052120C02F00402A2
:100B1C009140A1F580431B0CC0F10E0003F00203C1
:100B2C00801AC01A994000EBD130C11D2BFA01F18B
:100B3C0001F0010101EB4000E86100226A612A61C9
:100B4C0004EB8001626822FA00F301F59871DB076F
:100B5C0006D4012303FA00F0104360600D601CE022
:100B6C001F2809680EBF00204008C0F119000BFABD
:100B7C0000F000E011464A68D208D2005A4510D065
:100B8C00C20F01EB820202F1100340001A68002A26
:100B9C00F0D12069834211D31D60A961ED60AD6075
:100BAC000EE022698868914228BF904206D3C56046
:100BBC008D60A860E9600020A86101E000F0F8FCFD
:100BCC0006F10800BDE8F08D00F0F2FC0020BDE855
:100BDC00F08D2DE9F84F0446884660684142084084
:100BEC00411E080B00F01000C1404A0902F0080237
:100BFC00D1408B0803F00403D9404D0805F00205E1
:100C0C001018E9401818C1F3400628443018F14078
:100C1C00081804EB8000D0F830014168C908C900FD
:100C2C000646A1EB080A09E008464168C908C90054
:100C3C00A1EB080151453CBF8A46064601690029D3
:100C4C00F2D140690028F0D120698642C0F0C480FE
:100C5C007068C00808EB0A09C00008EB060B484591
:100C6C0018BF00F0A5FC5E4580F0B680F768B5694A
:100C7C00B7420CD0B0682169884223D3C168B14215
:100C8C0004BFB968B1421DD1C760B8601CE006F161
:100C9C001400076837B906F110000768A7B101E026
:100CAC000846076807F114010A68002A02BF07F119
:100CBC0010010A68002AF3D12169884202D300216D
:100CCC00016001E000F074FC002D34D0F06904EBFD
:100CDC00800000F5987001688E4209D107603800D9
:100CEC0011D1F2696068012191408843606022E073
:100CFC002069854205D32869B04214BF6F612F610A
:100D0C0001E000F055FCB7B12069874211D3BD61F9
:100D1C00306930B12169884226BF3861876100F0A3
:100D2C0047FC706938B12169884202D378618761C8
:100D3C0001E000F03DFCBAF1100F09D249F00300BC
:100D4C00706009EB0600416841F0010141603FE031
:100D5C0048F0030070604AF00100CBF804004AF838
:100D6C000BA0D4F808804FEAD805202D28BF00F03E
:100D7C001FFCB8F1000F27D0D4F81490009504EBA9
:100D8C00C50000F128052F46B8F1100F38BF00F050
:100D9C000FFC2068009920FA01F1C90705D4009ACC
:100DAC00012191400843206006E0A868216988422F
:100DBC002CBF074600F0FCFBC5F80890C7F80C9058
:100DCC00C9F80870C9F80C50C4F808A0C4F814B0DD
:100DDC0006F10800BDE8F28F00F0EAFB0020BDE848
:100DEC00F28F2DE9F04F83B00546C046C046DFF8C0
:100DFC00B847F52D80F002810B2D31BF102705F17E
:100E0C000B00C008C7002068FE08F04010F0030F6C
:100E1C0042D0C04300F00100861904EBC60000F17B
:100E2C002808F700D8F808506868C008C000B84215
:100E3C0018BF00F0BDFBD5F80890454508BF00F081
:100E4C00B7FB4D4508BF00F0B3FB6868C008C00095
:100E5C00B84218BF00F0ACFBC84505D12068012191
:100E6C00B140884320600DE02069814508D3D9F852
:100E7C000C00A84204D1C8F80890C9F80C8001E015
:100E8C0000F096FB47F0030068607819083541685C
:100E9C0041F001014160F9E0A168B94280F0C080E5
:100EAC00002800F0A280012505FA06F149004A420B
:100EBC00B0401143084041420840411E080B00F06D
:100ECC001000C1404A0902F00802D1408B0803F01F
:100EDC000403D9404E0806F002061018F140181809
:100EEC00C1F340083018404421FA08F101EB000826
:100EFC0004EBC80000F128094FEAC80AD9F80860C9
:100F0C007068C008C000504518BF00F051FBD6F8FF
:100F1C0008B04E4508BF00F04BFB5E4508BF00F023
:100F2C0047FB7068C008C000504518BF00F040FB7C
:100F3C00D94505D1206805FA08F1884320600DE0F9
:100F4C002069834508D3DBF80C00B04204D1C9F802
:100F5C0008B0CBF80C9001E000F02AFB47F003003E
:100F6C007060AAEB0708B819019048F001000199CC
:100F7C004860019848F80080A7684FEAD70ABAF190
:100F8C00200F28BF00F014FB47B3CDF800A004EBF2
:100F9C00CA00D4F8149000F1280AD346102F38BF99
:100FAC0000F006FB2068009920FA01F1C90705D46E
:100FBC00009905FA01F10843206007E0DAF808000F
:100FCC00216988422CBF834600F0F2FACAF80890D7
:100FDC00CBF80C90C9F808B0C9F80CA0C4F808807C
:100FEC0006F108050198606150E06068C0B33946AD
:100FFC002046FFF7EEFD050012D047E015F1400F3B
:10100C0028BF4FF0FF370BD205F10B00C008C7000B
:10101C00606828B139462046FFF70EFC050035D133
:10102C00A068B8421CD3C11B626910290AD3B81836
:10103C006061A16041F001034360095047F0030077
:10104C0050600AE00021A160616140F00301516031
:10105C008018416841F00101416002F1080515E07A
:10106C00E06887420DD2C01BA169E0607A18A261CA
:10107C0040F00100506001F1080547F003004860A2
:10108C0004E039462046FFF70AFA0546C046C0463A
:10109C00284603B0BDE8F08F00B970472DE9F04742
:1010AC00A0F10804C046C046DFF8FC54286984420D
:1010BC00C0F07482616801F00302012A00F06E82B4
:1010CC00CA084FEAC20808EB0409CA0736D42268DA
:1010DC0011F0030F00F06482A41A90448442C0F013
:1010EC005D8269698C4200F0D880D608202E70D2BF
:1010FC00D4F80CA0A768544508BF00F059FABC42BC
:10110C0008BF00F055FA6068C008C000B0EBC60F0D
:10111C0018BF00F04DFA05EBC60000F128018F4214
:10112C0005D029698F4251D3F968A1424ED1BA45F5
:10113C003DD128680121B140884328604C4580F09E
:10114C002D82D9F80400C10740F12882810700F1F3
:10115C007A81A969894540F0B580E868AC61404462
:10116C00E86040F00101616069698C4202D10021A4
:10117C006961A960E969814280F01282DFF82C0470
:10118C00006808B9FEF7A1FFA969002900F00882E0
:10119C00E868292824BF2846FEF78AFFE869E96831
:1011AC00884280F0FD814FF0FF30E861F8E1283093
:1011BC00824506D02869824508D3DAF80800A04297
:1011CC0004D1C7F80CA0CAF80870B7E700F0F0F922
:1011DC00B4E7E768A669A7420BD0A168814222D385
:1011EC00C868A04204BFB868A0421CD1CF60B960E7
:1011FC001BE004F114010F6837B904F110010F68FA
:10120C009FB101E011460F6807F114021368002B1F
:10121C0002BF07F110021368002BF3D1814202D3F5
:10122C000020086001E000F0C3F9002E86D0E069D0
:10123C0005EB800000F5987001688C4209D10760BD
:10124C00380011D1E26968680121914088436860D7
:10125C0074E72869864205D33069A04214BF7761D0
:10126C00376101E000F0A4F9002F3FF467AF286963
:10127C008742ABD3BE61216929B1814226BF396156
:10128C008F6100F095F9606900283FF457AF296928
:10129C0088429BD37861876150E799F8040000F08D
:1012AC00030003287FF44AAFC5F80880D9F804007E
:1012BC0040084000C9F8040048F00100606048F89C
:1012CC0004806DE16969894508D1A8686C61404466
:1012DC00A86040F001016160005161E1C008C000EC
:1012EC004FEAD00A8044BAF1200F36D2D9F80C70EC
:1012FC00D9F80860B94508BF00F05AF9B14508BFE4
:10130C0000F056F9D9F80400C008C000B0EBCA0FC1
:10131C0018BF00F04DF905EBCA0000F128018E4210
:10132C0006D029698E42C0F08180F16849457DD193
:10133C00B74206D12868012101FA0AF188432860D6
:10134C0076E02830874205D0286987426ED3B8688A
:10135C0048456BD1F760BE606AE0D9F80C70D9F8DB
:10136C0018604F450DD0D9F808002969884223D35D
:10137C00C168494504BFB96849451DD1C760B8600B
:10138C001CE009F11400076837B909F1100007686F
:10139C00A7B101E00846076807F114010A68002AA2
:1013AC0002BF07F110010A68002AF3D129698842AB
:1013BC0002D30021016001E000F0FAF8002E37D0D2
:1013CC00D9F81C0005EB800000F598700168894580
:1013DC000AD10760380012D1D9F81C2068680121A5
:1013EC0091408843686023E02869864205D33069C0
:1013FC00484514BF7761376101E000F0D9F8BFB1FF
:10140C002869874212D3BE61D9F8101029B18142E4
:10141C0026BF39618F6100F0CBF8D9F8140038B1D0
:10142C002969884202D37861876101E000F0C0F835
:10143C0048F00100606048F80480686984420BD170
:10144C00C5F80880ACE040084000C9F8040048F03A
:10145C000100606048F804804FEAD807202F22D2A0
:10146C0005EBC70000F128094E46B8F1100F38BF44
:10147C0000F09EF8286820FA07F1C90704D401216E
:10148C00B9400843286007E0D9F808002969884268
:10149C002CBF064600F08CF8C9F80840F460A66032
:1014AC00C4F80C907CE05FEA182008BF002123D020
:1014BC00B0F5803F28BF1F211ED2A0F58071090C0A
:1014CC0001F008018840A0F58052120C02F00402D1
:1014DC009040A0F580431B0CC1F10E0103F00203F8
:1014EC00891AC91A984001EBD030C11D28FA01F1B4
:1014FC0001F0010101EB4001E16100226261226116
:10150C0005EB81006A6822FA01F300F59870DB079D
:10151C0006D4012303FA01F11143696004601CE055
:10152C001F2900680EBF00214908C1F1190108FAF2
:10153C0001F100E010464268D208D200424510D0BA
:10154C00CA0F00EB820202F1100349001A68002A4C
:10155C00F0D129698B4211D31C60A061E460A460B6
:10156C000EE02A698168904228BF914206D3CC6074
:10157C008460A160E0600020A06101E000F018F838
:10158C00286A401E28620BD1D5F8C80100E080689B
:10159C000028FCD14FF0FF30286201E000F008F881
:1015AC00C046C046BDE8F087B8110020E418002002
:1015BC00012000F033B8FEE7FEE7FEE7FEE7FEE7AA
:1015CC00FEE7FEE7FEE7FEE7FEE7FEE7FEE7FEE7E7
:1015DC00FEE7FEE7FEE7FEE7FEE7FEE7FEE7FEE7D7
:1015EC00FEE7FEE7FEE7FEE7FEE7FEE7FEE7FEE7C7
:1015FC000749086808B1002070470648C008C000B9
:10160C0008600549C908C900091A0160704700BF84
:10161C00901A0020070008200040082080B5C04622
:10162C00C046024A11001820ABBEFBE726000200A0
:10163C0010B584B001A8DFF858180CC90CC00839D3
:10164C000838DFF8200C00788DF806000024DFF84D
:10165C00EC0ADFF8EC1A0860DFF8E00ADFF8081C87
:10166C000860DFF8D80ADFF8041C08600020DFF8F7
:10167C00001C0870DFF8FC0B006800905FF4001091
:10168C00DFF8101808605FF40000DFF8EC1B08604E
:10169C005FF08070DFF8E01B0860642100A800F0A8
:1016AC000FFF0028F9D05FF40010DFF8CC1B0860A6
:1016BC00DFF8C00B006800904FF47A7100A800F0BE
:1016CC00FFFE0028F8D0DFF8AC0B00680090DFF8C4
:1016DC00500C0068C00709D4E4B2002C06D14FF4BA
:1016EC007A7100A800F0ECFE0400F0E7E4B2002CE4
:1016FC0010D100F025F800F0CFFB01A800F0B5FBED
:10170C008DF8080001A800F049FA4FF47A713E20D8
:10171C0000F00AFB1FBD0020C82801D2401CFBE7CB
:10172C005FF08070DFF86C1708600020142801D27D
:10173C00401CFBE75FF08070DFF83C1B08607047D3
:10174C00F0B58BB006A8DFF8401A112200F0D6FED7
:10175C0000A8DFF8381A182200F0E0FE0027DFF8A6
:10176C00C00B0068C00740F10B81DFF8240A006849
:10177C0006000020DFF81C1A0860DFF81C0A00685D
:10178C00C00009D5DFF8100A006830F08050DFF88F
:10179C00081A0860761E15E0FFF7BDFFDFF8800B16
:1017AC00006840070ED4DFF8EC09006842F21071B3
:1017BC00884207D2DFF8DC090068401CDFF8D41936
:1017CC000860EBE7DFF8CC09006842F2117188423F
:1017DC0005D300F0D7F806A800F0DCFED0E0DFF867
:1017EC00400B006830F00400DFF8341B0860DFF8B1
:1017FC00780A00680078A42840F08680DFF8980901
:10180C00006850F08060DFF890190860FFF783FFE4
:10181C00DFF80C0B0068C0070ED5DFF878090068FC
:10182C0042F21071884207D2DFF868090068401C48
:10183C00DFF860190860EBE7DFF85C09006830F04E
:10184C008060DFF854190860DFF8D40A006830F0C3
:10185C000400DFF8CC1A0860DFF83809006842F29F
:10186C001071884246D2DFF828090068861BDFF821
:10187C00F80900680078040000F09AF8DFF8E8092D
:10188C0000680078801C0500EDB2A81C864207D0C9
:10189C00DFF80409006850F00100DFF8FC1808605C
:1018AC00DFF8C40900680078444000F081F86D1E30
:1018BC00EDB2002DF4D1DFF8B00900680078E4B285
:1018CC0084420ED1DFF8A8090078401CDFF8A0197B
:1018DC000870DFF8A8090068401CDFF8A019086040
:1018EC001BE0DFF884090068DFF88019086000F05D
:1018FC0073F812E0DFF888090068401CDFF88019E3
:10190C0008600120070008E0DFF878090068401C37
:10191C00DFF87019086001200700FFB2002F2DD0EE
:10192C0000A800F037FEDFF8F8090068C00710D5F2
:10193C00DFF86008006842F21071884209D2DFF8C3
:10194C0054080068401CDFF84C180860FFF7E3FEF1
:10195C00E9E7DFF8EC070068DFF80C190860DFF83E
:10196C00E0070068DFF804190860DFF8B4090068C4
:10197C0030F00600DFF8A819086001E000F018F854
:10198C000BB0F0BD72B6DFF8B407DFF8B41708601F
:10199C00DFF8A807DFF8D0180860DFF8A007DFF839
:1019AC00CC1808600020DFF8C818087062B67047C1
:1019BC00DFF8B4080068401CDFF8AC180860DFF8EA
:1019CC00A8080068DFF87419884204D1DFF86C07A6
:1019DC00DFF8941808607047DFF890080068401C26
:1019EC00DFF888180860DFF884080068DFF84C1905
:1019FC00884204D1DFF84407DFF87018086070479C
:101A0C0038B5DFF8BC090068C00109D5DFF8B409A6
:101A1C0000F0C0FDDFF8B009DFF8B0190860B6E0DF
:101A2C005FF40010DFF8A8190860DFF8A80900F0CF
:101A3C00B1FD0020DFF8A01908600020DFF89C1928
:101A4C0008600020DFF81C1808701020DFF814184C
:101A5C0048700020DFF80C188870FF20DFF804189D
:101A6C00C870FF20DFF8FC1708710120DFF8F417AD
:101A7C0048711020DFF8EC178871CD20DFF8E417DF
:101A8C00C8710C20DFF8DC1708723720DFF8D41788
:101A9C0048720320DFF8CC1788720420DFF8401955
:101AAC000870DFF84009DFF8381948605FF48000EF
:101ABC00DFF82C1988600120DFF824190873022044
:101ACC00DFF81C1948730FF24530DFF81419086160
:101ADC000FF25130DFF808194861DFF86006DFF8C3
:101AEC0000198861DFF85806DFF8F418C8614FF464
:101AFC008070DFF8EC180884DFF8E40801F00CF9CA
:101B0C00DFF8E41808600020DFF814180860FFF70D
:101B1C008FFDDFF8D8080078C00617D5DFF8D0089D
:101B2C0000F038FDDFF8CC0800F034FD00F044FD87
:101B3C00DFF8C408006830F48030DFF8BC180860A7
:101B4C000FF24570DFF88418086020E0DFF8AC086D
:101B5C0000F020FD5FF0307004005FF0F0700500C5
:101B6C00DFF89C080460DFF89C080460DFF8980834
:101B7C000560DFF870080560DFF890080460DFF896
:101B8C00900805600FF60910DFF84018086031BDA9
:101B9C0080B5DFF838080068804701BDF0B599B012
:101BAC000400DFF87008076810A8DFF86C18212211
:101BBC0000F0A4FC0AA8DFF86418152200F09EFCC3
:101BCC0005A8DFF85C18122200F098FC00A8DFF8DA
:101BDC005418112200F092FCDFF8BC05006810F0DC
:101BEC00406F04D010A800F0D5FC00209AE0002033
:101BFC00DFF8A01508605FF40000DFF898120860A9
:101C0C00DFF81C070068C0070ED4DFF888050068F1
:101C1C0042F21071884207D2DFF878050068401C48
:101C2C00DFF870150860EBE7DFF86805006842F232
:101C3C001171884209D35FF40000DFF83C1608608C
:101C4C000AA800F0A7FC00206CE0FFF764FDDFF8A9
:101C5C00D006006840070ED4DFF83805006842F261
:101C6C001071884207D2DFF82C050068401CDFF8A1
:101C7C0024150860EBE75FF40000DFF8FC15086042
:101C8C00DFF81005006842F21171884204D30AA8EB
:101C9C0000F080FC002045E0DFF8CC0500680078FF
:101CAC000500EDB2A42D09D1DFF8EC04006850F06A
:101CBC008050DFF8E4140860002033E0FFF778FE72
:101CCC00FFF78AFEDFF85806006830F00400DFF8F2
:101CDC0050160860EDB2A52D20D1DFF8BC040068C9
:101CEC0050F00060DFF8B01408602078C01C0600CB
:101CFC0022003100DFF8F006006801F0B1F8DFF8DF
:101D0C0028170860DFF820070068002801D00120A0
:101D1C0008E005A800F03EFC002003E000A800F05D
:101D2C0039FC002019B0F0BDF0B589B004000D00ED
:101D3C0000260127DFF8DC060068009001A8DFF818
:101D4C00EC161A2200F0DAFBDFF828050068009088
:101D5C00DFF8CC050068C00709D5F6B2002E06D115
:101D6C004FF47A7100A800F0ABFB0600F0E7F6B276
:101D7C00002E20D1DFF88006006830F00060DFF81C
:101D8C007816086000F05DFA0020DFF89C160860F9
:101D9C00DFF8E00400680090DFF884050068C007F5
:101DAC0009D4F6B2002E06D14FF47A7100A800F0D7
:101DBC0087FB0600F0E7F6B2002E1BD1FFF7C0FC44
:101DCC00DFF8AC040078002814D0DFF8A004006819
:101DDC00807840280ED1DFF8940400680079E4B2D2
:101DEC00A04207D1DFF8840400684079002801D1B3
:101DFC000020070000F050F8F6B2002E02D001A827
:101E0C0000F0C8FB3800C0B209B0F0BD80B5DFF8F7
:101E1C0020060068401CDFF818160860FFF77BFCF2
:101E2C0001BD000080B5DFF868030068401CDFF8D6
:101E3C0060130860DFF808050068401CDFF8001527
:101E4C000860DFF8FC040068DFF8F014884204D165
:101E5C00DFF8F004DFF8E8140860DFF89C05006890
:101E6C00400101D5FFF757FC01BD10B40100087803
:101E7C00821CA5200023DBB2D2B2934204D20C7890
:101E8C006040491C5B1CF6E7C0B210BC70470000F8
:101E9C003C5C0800340E0E4030B585B0DFF8D00342
:101EAC000078002801D1012046E1DFF88C0500689C
:101EBC00401CDFF884150860DFF8B4030078401E7E
:101ECC00DFF8AC130870FFF787FDDFF8A00300689C
:101EDC0000780400E4B2122C01DB01202CE1002577
:101EEC00EDB2E4B2E01C85420ADADFF88003006848
:101EFC00007800A9EDB26854FFF76EFD6D1CEFE79A
:101F0C009DF801003E2800F0F58040280CD04E28AA
:101F1C0000F0E2804F2800F0D280522800F0E980D7
:101F2C006F2800F0FB8000E19DF80300012859D0D8
:101F3C009DF8030041282DD0422826D04B2802D0F2
:101F4C004C2815D034E0DFF8F40400F023FBDFF864
:101F5C00A804006850F40020DFF89C140860DFF837
:101F6C009804006830F48020DFF88C14086023E0BB
:101F7C00DFF8CC0400F00EFBDFF87C04006830F4D2
:101F8C00C010DFF87414086016E0DFF8B80400F035
:101F9C0001FB11E0DFF8B00400F0FCFADFF85804A4
:101FAC000068DFF8A8140840DFF84C14086003E060
:101FBC00DFF89C0400F0EEFA9DF80400002804D130
:101FCC00DFF82C0400F0E6FA78E0DFF8880400F083
:101FDC00E1FADFF82404006850F00200DFF818146E
:101FEC0008606BE09DF8040000280ED001284CD04E
:101FFC0002280BD0032830D0052836D0062840D034
:10200C00072846D0082824D050E057E0DFF84804D1
:10201C000078401CDFF840140870DFF83C040078AE
:10202C00002812D1DFF834040078401CDFF82C149F
:10203C000870DFF828040078002806D1DFF82004A7
:10204C000078401CDFF818140870022000F07AF8B1
:10205C0034E0082000F076F830E082484078102810
:10206C0002D1032000F06EF828E0DFF88C03006842
:10207C0050F08070DFF880130860052000F062F8E3
:10208C001CE0062000F05EF818E0012000F05AF881
:10209C0014E0DFF8D00300F07DFADFF85C03006891
:1020AC0030F4C010DFF85013086007E0DFF8480385
:1020BC00006850F00400DFF8401308603BE00DF1BD
:1020CC000301012000F06AF866484078002802D12C
:1020DC00002000F037F82EE00DF10301012000F094
:1020EC005DF860484078002802D1002000F02AF802
:1020FC0021E020E00020C0B20A2808DA00A9C0B212
:10210C0041188978BB4AC0B28154401CF3E7B748E8
:10211C00006850F01000B54908600CE0B648006843
:10212C0050F48030B449086005E0B348006850F0C2
:10213C000800B1490860002005B030BD90130020A4
:10214C00741900201CB50400FF208DF800008DF8D8
:10215C000140FF208DF80200FF208DF80300FF20C6
:10216C008DF80400BE4800788DF80500BB48007857
:10217C008DF80600B84800788DF8070000A90220F9
:10218C0000F00CF813BD0000A45B08002C5B0800E9
:10219C006019002054190020481900202DE9F04145
:1021AC008CB004000D005FF0000800A8AE492B2293
:1021BC0000F0A4F91420FEF714FE0600002E04D142
:1021CC0000A800F0E7F9002038E00020C0B2082891
:1021DC0006DAC0B2415DC0B282195171401CF5E7FC
:1021EC002448006830603471002030617A480068FF
:1021FC00002807D1784806608E480068401C8D493D
:10220C0008601AE07448006807003869002803D099
:10221C003F6918F10108F8E75FFA88F8B8F1200F68
:10222C0006D23E6183480068401C8249086004E085
:10223C0000A800F0AFF9002000E001200CB0BDE8D0
:10224C00F08110B56548006800280AD06348006822
:10225C000400624800688069604908602000FEF74D
:10226C001BFF10BD2C190020781900207C190020B0
:10227C00971A0020E4190020300E0E408C19002013
:10228C00641900206819002070B5012400255A48F3
:10229C000068000420D0754800F07CF96D1C002605
:1022AC00F6B2042E12DA5448006820420BD0704863
:1022BC00EDB2142101FB050000F06CF94E480068EA
:1022CC00A0434D4908606400761CE9E74A48006861
:1022DC00000C000448490860FFF7DEFD1048006858
:1022EC00C00704D50FF23D003849086016E04E488F
:1022FC000068002812D13948006800280ED03748F1
:10230C000068001DFFF74AFC002807D059480068F8
:10231C00594908600FF231002C49086070BD00006B
:10232C00101A002080B555480068401C53490860BD
:10233C00FFF706FA52482549086001BD90140020A9
:10234C00741900209013002010B53748006801F074
:10235C0035F90400E4B22000001F01282ED8FFF745
:10236C0070FF0020304908602348006830F000609E
:10237C002149086043480068C0070BD53E480068F7
:10238C0042F21071884205D23B480068401C3A4921
:10239C000860EFE73C48006842F21171884209D3AB
:1023AC003A4800F0F7F837480068C00702D5FFF745
:1023BC00B2F9F8E7324805490860FFE710BD0000A4
:1023CC00CC190020040100209D2408005019002085
:1023DC00100E0E40640200204C19002084190020BD
:1023EC00EC170020000E0E4070190020D0190020B0
:1023FC00500300203819002048190020B00100209B
:10240C00040C0E40000C0E40040E0E40140C0E403A
:10241C00140E0E40E8190020CC580800445B08004C
:10242C00B85B0800CC5B08006C190020B45A08009B
:10243C005C19002080190020901900200403002052
:10244C00F0020020DC0200204C020020FEFFE3FF23
:10245C0030020020580300209A1A0020991A0020FC
:10246C00981A0020E05B0800785808004003002010
:10247C0070000020E4190020581900208819002051
:10248C0095220800101A002054190020D0010020B9
:10249C00704710B450F8041B81B102681218001D6B
:1024AC0050F8043BDC0744BFA9F10104E31852F8CF
:1024BC00044B43F8044B091FF9D1EBE710BC7047F0
:1024CC0010B402000C4800681468A04205D30A48F6
:1024DC0000681468001B030007E05FF0FF3014680D
:1024EC00001B054C2468201803008B4201D20020ED
:1024FC0000E0012010BC7047E419002062B38B0788
:10250C0008D0521E11F8013B00F8013B00F024806A
:10251C008B07F6D1830740F0208000BF103A07D319
:10252C0030B4B1E83810103AA0E83810F9D230BC09
:10253C00530724BFB1E80810A0E8081044BF51F8B5
:10254C00043B40F8043BD20724BF31F8022B20F89F
:10255C00022B44BF0B7803707047083A07D3B1E8DD
:10256C000810083A40F8043B40F804CBF7D2530764
:10257C00E4E750F8041B61B150F8042BD30744BFB7
:10258C00A9F101039A18002342F8043B091FFAD160
:10259C00EFE7704770B50400250000262878002866
:1025AC0002D0761C6D1CF9E722003100DFF8AC0676
:1025BC00006801F01BFA70BD80B5DFF8A406008836
:1025CC00ADF8000000AA0221DFF89006006801F0C7
:1025DC000DFA01BD2DE9FE43040000250026DFF8AD
:1025EC0084860020C0B20A2819DAB4FBF8F1303125
:1025FC0000AAC0B2815400A9C0B2415C302901D0FC
:10260C0001210D00EDB2002D00D0761CB4FBF8F1C9
:10261C0008FB11440A21B8FBF1F8401CE2E7EDB2CB
:10262C00002D01D101200600F6B23000FEF7D9FBD7
:10263C008146B9F1000F08D10220DFF82C16087082
:10264C000FF2E550DFF8241608600920070030006F
:10265C00C0B2002809D000A9795CC0B210EB090205
:10266C0002F8011C7F1E401EF2E74A46F6B231000A
:10267C00DFF8E805006801F0B9F94846FEF70CFDF3
:10268C00BDE8F78370B5ACB000A8DFF8F0151122E7
:10269C00FFF734FF19A8DFF8E8154822FFF73EFFD3
:1026AC000124012505A8DFF8DC155022FFF736FFC1
:1026BC0019A8FFF76FFF0026F6B2082E12DADFF822
:1026CC00C805006804420AD10020050005A8F6B22E
:1026DC000A2101FB0600FFF75DFFFFF76DFF6400A9
:1026EC00761CE9E7EDB2002D02D000A8FFF752FFEF
:1026FC00FFF762FF2CB070BD00B585B0002080B232
:10270C00802806D20021DFF8842580B28154401C39
:10271C00F5E70020DFF8581508700020C0B28028BB
:10272C0006DA0021DFF84C25C0B28154401CF5E7D5
:10273C00DFF85805DFF858150860DFF85005DFF8AA
:10274C0054150860DFF85005DFF8501508600220BA
:10275C008DF80000DFF834050190DFF838050290A1
:10276C008020ADF802000FF25900039000A801F090
:10277C0089F8DFF8E8140860DFF8E0040068002846
:10278C0005D10FF2A540DFF8E414086010E0DFF883
:10279C001005FFF7FFFEDFF8F004006850F00400AE
:1027AC00DFF8E41408600FF25D20DFF8C014086055
:1027BC0005B000BD80B5DFF8B4040068804701BDEA
:1027CC00DFF8D0040068401CDFF8C8140860DFF89C
:1027DC00C4040068DFF8CC14884204D1DFF8AC04E0
:1027EC00DFF8B0140860704710B592B00AA8DFF893
:1027FC00B8141922FFF782FE3A208DF8020020202F
:10280C008DF803000A208DF824000D208DF825008A
:10281C0000208DF826000AA8FFF7BCFE0024E4B2C5
:10282C00082C2CDAE4B20A2C07DBE4B20A2094FB65
:10283C00F0F030308DF8000002E030208DF8000010
:10284C00E4B20A2094FBF0F100FB114030308DF81B
:10285C0001000020C0B220280CDADFF85014E4B2DA
:10286C0051F83410C0B2415C00AAC0B28218117188
:10287C00401CEFE700A8FFF78DFE641CCFE7FFF7C5
:10288C009BFE12B010BD10B584B000A8DFF8201468
:10289C001CC91CC00C390C3800A8FFF77BFE1FBDEF
:1028AC0010B584B000A8DFF80C141CC91CC00C397E
:1028BC000C3800A8FFF76EFEDFF8BC030078C007E9
:1028CC000CD5DFF8B403006840084000DFF8A8130B
:1028DC000860DFF8E403FFF75DFE3BE0DFF89803E8
:1028EC00006850F00100DFF890130860DFF8CC03AB
:1028FC00FFF750FE002001F06BFA012001F068FA9E
:10290C00022001F065FA032001F062FA042001F0C4
:10291C005FFA052001F05CFA062001F059FA072055
:10292C0001F056FA002001F053FA012001F050FAA0
:10293C00022001F04DFA032001F04AFA042001F0C4
:10294C0047FA052001F044FA062001F041FA07206D
:10295C0001F03EFA1FBD10B50400E4B2572C02D1B1
:10296C00002001F090FAE4B2502C02D1012001F0C9
:10297C008AFAE4B2422C02D1022001F084FAE4B2C9
:10298C00432C02D1032001F07EFAE4B2472C02D191
:10299C00042001F078FAE4B2592C02D1052001F0A0
:1029AC0072FAE4B24F2C02D1062001F06CFAE4B2B8
:1029BC00522C02D1072001F066FA10BD00B589B087
:1029CC0000A8DFF8FC122322FFF798FD00A8FFF700
:1029DC00E1FDA9480078800709D5A748006830F0C8
:1029EC000200A5490860B448FFF7D4FD08E0A248EE
:1029FC00006850F00200A0490860B048FFF7CAFD1B
:102A0C0009B000BD38B50024A1480068A149096887
:102A1C00884200F09A80E4B2002C40F096809C48EA
:102A2C00006800780500EDB22800082802D00D28B7
:102A3C0033D03CE09048007840070DD58C480078A6
:102A4C00802826DA8B488A4909780D548848007802
:102A5C00401C874908701CE085480078002809D084
:102A6C0083480078401E8249087000208149804AC2
:102A7C0012785054894800688749884209D08748A1
:102A8C000068401E854908608E480088401E8D49AC
:102A9C0008808D48FFF77EFD40E0774800784007BE
:102AAC0005D4012004000FF2B5007049086070488D
:102ABC000078802808DA6F486D4909780D546C4805
:102ACC000078401C6A4908702900C9B26348006844
:102ADC0000F074FF6848007840071FD46F48006806
:102AEC0005706E480068401C6C4908607548008889
:102AFC00401C7449088069480068744988420DD3A9
:102B0C00EDB20D2D0AD064486449086000206D496F
:102B1C0008806F48FFF73EFD6E4908605648007804
:102B2C00C00703D52800C0B2FFF715FF584800684E
:102B3C00401C57490860564800685A498842FFF4BF
:102B4C0063AF5248524908605EE76248006800284B
:102B5C0003D06048006800F031FD31BD70B5012430
:102B6C00002005004C48EDB2285C5B49EDB2695C75
:102B7C00884201D0002004006D1CE4B2002C02D06D
:102B8C00EDB2042DEEDBE4B2002C2ED000200400BC
:102B9C004148EDB22856303806006D1C76B2002E36
:102BAC0023D476B20A2E20DA0A2000FB06F04B4919
:102BBC0008703948EDB22856303806006D1C76B2D4
:102BCC00002E12D476B20A2E0FDA44480078301850
:102BDC004249087041480078082806DA2E48EDB2C0
:102BEC00285C0D2801D101200400E4B2002C04D093
:102BFC000FF21D001D49086005E03948FFF7CAFCBB
:102C0C0038481A49086024482449086070BD0000FF
:102C1C0080B534481549086024483049097810EBD0
:102C2C00C1004068804701BD80B51348006850F072
:102C3C000040114908602C48FFF7ACFC0A480078AA
:102C4C00FFF7C8FCFFF7B8FC00201E4908801248AB
:102C5C001249086023480549086001BDB0190020DD
:102C6C006641080000CA9A3B9C1A0020AC1900204F
:102C7C009B1A002090150020A8190020F45B080076
:102C8C0030580800E0570800D0190020101600201A
:102C9C00BC190020B819002010170020C019002002
:102CAC00C000002090160020D05A080044010020DB
:102CBC00185C0800245C08007803002070030020D6
:102CCC00105A0800941A002084030020501700208A
:102CDC00F0010020B4190020680300209D1A002088
:102CEC002C030020112A08007C020020012110F086
:102CFC001F029140DFF8502840B2430942F82310DC
:102D0C007047012110F01F029140DFF8402840B2BB
:102D1C00430942F8231070472DE9F047040020784E
:102D2C00022804D034D3042821D010D330E0DFF8AB
:102D3C002008050050200600DFF8180807000820BE
:102D4C0080467FF0080081461A20824622E0DFF898
:102D5C000808050060200600DFF8000807000020C6
:102D6C0080465FF0FF3081463020824612E0DFF86B
:102D7C00F007050050200600DFF8E80707005FF4B5
:102D8C00002080465FF0FF3081460020824601E043
:102D9C00002063E02869C00201D500205EE0DFF866
:102DAC00C8070068012195F9262091400843DFF8F7
:102DBC00B817086060686860A068A860207B2873FA
:102DCC00607B6873206968616069A861A069E861CB
:102DDC00E0692862208CA884286950F4801028614E
:102DEC0028680660286847602868C0F8088028684A
:102DFC00C0F80C902868C0F820A0687B01281BD173
:102E0C00A0692968C1F80001A069401C2968C1F8B3
:102E1C00100101202968C1F8040101202968C1F8BA
:102E2C0014010020286240F201102968C1F8200129
:102E3C005FF4002029688860687B022803D1DFF8E2
:102E4C002C072968886095F9260040B2FFF759FFD6
:102E5C0095F9260040B2FFF749FF2800BDE8F0873E
:102E6C00F8B504000D0016003200290014F12800FA
:102E7C0000F0C0FB0700002F01D1002007E0DFF8B5
:102E8C00F4060068002801D500F087F83800F2BD80
:102E9C0070B5DFF8E806DFF8B81608600020DFF838
:102EAC00B01648600020DFF8A81688620020DFF812
:102EBC00A016C8610020DFF8981688840020DFF87F
:102ECC00901608620020DFF8881608610D20DFF8E4
:102EDC00801681F82600DFF8A806DFF87C1608605B
:102EEC000020DFF8741648600020DFF86C1688624A
:102EFC000020DFF86416C8610020DFF85C168884B7
:102F0C000020DFF8541608620020DFF84C16086128
:102F1C000E20DFF8441681F82600DFF86806DFF88B
:102F2C00401608600020DFF8381648600020DFF8F3
:102F3C00301688620020DFF82816C8610020DFF800
:102F4C00201688840020DFF8181608620020DFF8AD
:102F5C00101608610F20DFF8081681F82600DFF83C
:102F6C00F005DFF8241608608024FF25DFF80866DA
:102F7C002A002100300001F0BDF80FF20D40DFF8FF
:102F8C00F0150860DFF80406FFF704FB70BD80B590
:102F9C00DFF8DC050068804701BD80B5DFF8F0057F
:102FAC00006850F00100DFF8E8150860DFF8A005B4
:102FBC00DFF8D4150860DFF8D8050078C0070FD506
:102FCC00DFF8AC0500688047DFF8C8050068DFF85B
:102FDC00C81508600121DFF8C005FFF771FAEAE7B0
:102FEC0001BD80B5DFF87005DFF8B0150860DFF8BB
:102FFC00B405DFF8AC150860DFF8AC050068401CC0
:10300C00DFF8A415086000F016F801BD80B5DFF8F4
:10301C005005DFF888150860DFF89005DFF880159B
:10302C000860DFF88C050068401CDFF88415086028
:10303C0000F001F801BD70B5DFF8600500680068AC
:10304C0040690600DFF85405006800680069000359
:10305C0038D5300336D5DFF8440500684068C06BBE
:10306C00DFF8381509688968084214D1DFF8300593
:10307C000068006850F00100DFF82415096808604A
:10308C00DFF81C050068006830F00600DFF810154A
:10309C000968086016E0DFF8080500680068400859
:1030AC004000DFF8FC1409680860DFF8F0040068E1
:1030BC00407B012806D10120DFF8E014096809687B
:1030CC00C1F80401DFF8D4040068006800698005C9
:1030DC0070D5B0056ED5DFF8C4040068C06A401E18
:1030EC00DFF8B8140968C862DFF8B004006800683B
:1030FC0080690400DFF8A4040068C06A002825D0A9
:10310C00DFF898040068006B401CDFF89014096825
:10311C000863DFF888040068006B00780400DFF8AF
:10312C007C040068007B012803D194FAA4F0000E03
:10313C0004002000C0B2DFF8641409680968C86193
:10314C00DFF8580400684069804733E04FF40070A2
:10315C00DFF8481409680968C860DFF840040068A3
:10316C00006930F40010DFF8341409680861042198
:10317C00DFF828040068806A006800F021FBDFF8A3
:10318C001C040068283000F0B2FA0120DFF80C149F
:10319C00096809688860DFF808040068006850F066
:1031AC000200DFF8FC1309680860DFF8F003006820
:1031BC0040698047DFF8E403006800680069C007D5
:1031CC0037D5DFF8D803006800684069C00730D5F0
:1031DC00DFF8C803006800688069C0B20400DFF83B
:1031EC00BC030068007B012803D194FAA4F0000E04
:1031FC0004002000C0B2FF2806D1DFF8B803006835
:10320C00401CDFF8B0130860DFF890030068006A18
:10321C0000680470DFF888030068006850F0040050
:10322C00DFF87C1309680860DFF8700300688069B8
:10323C008047DFF86803006800680069000762D502
:10324C00300760D5DFF854030068407B00282BD191
:10325C000421DFF848030068806A006800F0B0FAC7
:10326C00DFF838030068283000F041FADFF82C034F
:10327C000068006930F48000DFF8201309680861E9
:10328C00DFF8180300688068C44909684968086356
:10329C000220C24909680968C1F820010820BF4909
:1032AC0009680968C8602EE0BD480068006850F0E5
:1032BC000400BB4909680860B84800680068D0F889
:1032CC001001401CB54909680968C1F81001B348E0
:1032DC0000680068D0F80001B0490968C969AF4AB4
:1032EC001268928C5118884207D1AC480068C069AA
:1032FC00AA4909680968C1F800010120A7490968B1
:10330C000968C1F81401A548006800680069C00686
:10331C0039D5F00637D50421A0480068806A0068CA
:10332C0000F04EFA9D480068283000F0E0F99B4808
:10333C000068006930F400109849096808614FF47E
:10334C000070964909680968C1F82001102093495A
:10335C0009680968C860002005009048006800688A
:10336C004069800503D4642D01D26D1CF5E78B48B0
:10337C000068407B002806D188480068806887492F
:10338C0009684968086370BD10B57F480068806A99
:10339C00002800F0B5807C480068006910F4C00F6C
:1033AC0040F0AE8078480068407B002806D1764813
:1033BC000068806874490968496848637248006805
:1033CC00806A08306C4988422CD103216E48006811
:1033DC00806A006800F0F4F96B480068006950F4EA
:1033EC00800069490968086167480068806A08308C
:1033FC00654909680968C1F8000163480068806A7A
:10340C004068614909680968C1F8040108205E49EF
:10341C0009680968886001205B4909680968C1F876
:10342C0020016DE0022158480068806A006800F0B5
:10343C00C7F955480068006950F4001052490968F2
:10344C00086151480068407B02283BD14E48006817
:10345C00806A40684C490968C8624B480068806AB9
:10346C00083049490968086347480068006B0078D0
:10347C00040045480068007B012803D194FAA4F0AD
:10348C00000E0400082040490968096808604020C3
:10349C003D490968096808602000C0B23A490968CA
:1034AC000968C8610120384909680968C8604FF487
:1034BC0000703549096809688860334800684069BC
:1034CC0080471DE030480068806A08302E49096842
:1034DC000968C1F808012C480068806A40682A49CC
:1034EC0009680968C1F80C011020274909680968A6
:1034FC0088604FF48070244909680968C1F820017C
:10350C002148006890F826000D2804D015D30F2808
:10351C0009D004D311E010481B49086013E010488F
:10352C00194908600FE00A481749086018480068F4
:10353C00400840001649086005E01F48FFF72AF8CC
:10354C0003481149086010BD00E100E080E200E092
:10355C0050170020C008400084170020CE184500EA
:10356C00B8170020FF18410010040E40010008009D
:10357C00141A0020CC1900209016002000000940DD
:10358C000040094000800940201A0020AC020020B5
:10359C001C1A0020E4190020181A0020241A0020FC
:1035AC00281A00200C1A00202C1A0020101A0020B7
:1035BC00301A0020341A0020C40200200100FF2021
:1035CC009A4A13688B4204D0994B9A4201D00C3220
:1035DC00F7E7974B9A420BD013791800C0B2042826
:1035EC0002D0C0B2052803D100231360002313714D
:1035FC00C0B270472DE9F84F04000D001600AB4621
:10360C005FF000098B480078102807D18A480068C1
:10361C0050F0010088490860002066E0BBF1000F03
:10362C0062D084480078401C824908708148007838
:10363C000E2806DB8048006850F002007E490860C6
:10364C0005E07D48006830F002007B4908607B484B
:10365C0082469AF80000002802D11AF1900AF8E785
:10366C0000208AF800001AF104000700BBF1810F5A
:10367C0004D380208146BBF1800B02E0D9460020A8
:10368C0083466F4800683860C7F804900020C7F87C
:10369C00880000207968884205D23178C2191172ED
:1036AC00761C401CF6E72068002801D127600AE050
:1036BC0020688046D8F88800002802D0D8F8888086
:1036CC00F8E7C8F888705E48006800F087F85C4836
:1036DC000068401C5A4908605948006800289DD170
:1036EC0001205749086099E73868BDE8F28F0268F5
:1036FC00002A06D1504A126852F004024E4B1A604E
:10370C001FE04E4A11000A1D03689A4204D04D4A2C
:10371C00914201D09031F6E74A4A914206D1464A8D
:10372C00126852F00802444B1A600AE00268D2F8A0
:10373C008820026001220A703E4A1278521E3D4BCC
:10374C001A70704700203B49087001203C49086002
:10375C00002080B2102808DA0121384A80B2902368
:10376C0003FB00221170401CF3E7002080B24028BC
:10377C0016DA00212D4A80B20C2303FB00221160C3
:10378C0000212A4A80B20C2303FB00221171002174
:10379C00264A80B20C2303FB00229160401CE5E713
:1037AC002248294908600020234908600FF2610073
:1037BC0026490860704780B524480068804701BDE1
:1037CC001A4A1368834204D0194B9A4201D00C3226
:1037DC00F7E7174B9A4200D0117170471A490968E4
:1037EC0008600121184A1268117119490968164AB2
:1037FC0012689160144909680C31134A116012491E
:10380C0009680B4A914202D108490F4A116070476E
:10381C0010480068401E0F4908600E4800680028D8
:10382C0003D14FF47A700B4908607047940C002058
:10383C00940F00209E1A0020D4190020940300201D
:10384C00DC190020940C0020E0190020D81900206D
:10385C00E419002088030020012110F01F02914080
:10386C00DFF8FC2440B2430942F8231070470121D1
:10387C0010F01F029140DFF8EC2440B2430942F8EB
:10388C00231070472DE9F04704002078012806D05A
:10389C0046D3032823D012D3042830D040E0DFF8DD
:1038AC00C804050050200600DFF8C0040700002003
:1038BC0080465FF0FF3081461A20824632E0DFF806
:1038CC00B004050050200600DFF8A0040700082013
:1038DC0080467FF0080081461A20824622E0DFF8FD
:1038EC009404050060200600DFF88C04070000201B
:1038FC0080465FF0FF3081463020824612E0DFF8D0
:10390C007C04050050200600DFF8740407005FF407
:10391C00002080465FF0FF3081460020824601E0A7
:10392C00002049E02879C00701D5002044E0DFF8E9
:10393C0054040068012195F9222091400843DFF8D6
:10394C00441408606068686160882884A068A86175
:10395C00E068E861686850F00100686028680660FB
:10396C00286847602868C0F808802868C0F80C9060
:10397C002868C0F820A060682968C1F80001606858
:10398C00401C2968C1F8100101202968C1F8040104
:10399C0001202968C1F8140140F201102968C1F80E
:1039AC00200195F9220040B2FFF761FF95F9220042
:1039BC0040B2FFF751FF2800BDE8F08770B582B028
:1039CC0004000D008DF8005000AA012114F108002C
:1039DC00FFF710FE0600002E06D0DFF8B0030068DB
:1039EC00002801D500F09BF8300076BDF8B5040036
:1039FC000D0016003200290014F10800FFF7FAFD43
:103A0C000700002F06D0DFF884030068002801D5DA
:103A1C0000F085F83800F2BD0020DFF87413086060
:103A2C00DFF87003DFF8401308600020DFF838136C
:103A3C0088600020DFF8301348610020DFF828137D
:103A4C0008840020DFF8201388610020DFF81813A9
:103A5C0048600820DFF8101381F82200DFF83803E3
:103A6C00DFF80C1308600020DFF8041388600020D6
:103A7C00DFF8FC1248610020DFF8F4120884002003
:103A8C00DFF8EC1288610020DFF8E41248600D20AA
:103A9C00DFF8DC1281F82200DFF80003DFF8D41223
:103AAC0008600020DFF8CC1288600020DFF8C41218
:103ABC0048610020DFF8BC1208840020DFF8B41243
:103ACC0088610020DFF8AC1248600E20DFF8A412E9
:103ADC0081F82200DFF8C802DFF8A012086000208D
:103AEC00A64988600020A54948610020A3490884A4
:103AFC000020A24988610020A04948600F209F49FE
:103B0C0081F822009848A74908600FF27D109E4961
:103B1C000860704780B59C480068804701BD80B53F
:103B2C009B48006850F00100994908608E489D49F7
:103B3C00086097480078C0070BD593480068804709
:103B4C00994800689949086001219848FEF7B8FC2B
:103B5C00EFE701BD80B584489549086095489649C2
:103B6C00086096480068401C9449086000F010F802
:103B7C0001BD80B57E488E49086091488E49086029
:103B8C0090480068401C8F49086000F001F801BDA6
:103B9C0080B58748006800680069000738D58448FC
:103BAC00006800684069000732D5834800680068E7
:103BBC0050F002008049096808607D480068006880
:103BCC00D0F81001401C7A4909680968C1F8100145
:103BDC00774800680068D0F8100175490968496990
:103BEC00734A1268128C5118884207D170480068C9
:103BFC0040696F4909680968C1F810016C48006890
:103C0C00C069804701206A4909680968C1F8140134
:103C1C006748006800680069C00632D564480068CF
:103C2C0000684069C0062CD5042161480068806892
:103C3C000068FFF7C5FD5E4800680830FFF757FDC8
:103C4C005B480068406830F40010594909684860C6
:103C5C004FF40070564909680968C1F8200110201A
:103C6C00534909680968C86057480078002805D08E
:103C7C0055480078401E5449087002E05348FEF73E
:103C8C0089FC01BD0000000080B5464800688068D2
:103C9C00002836D0434800684068800231D40221A5
:103CAC004048006880680068FFF78AFD3D4800685E
:103CBC00406850F400103B49096848603948006876
:103CCC0080680830374909680968C1F80801354827
:103CDC00006880684068334909680968C1F80C01BC
:103CEC001020304909680968886037480078401C02
:103CFC00354908704FF480702A4909680968C1F881
:103D0C0020012848006890F82200082806D00D28C9
:103D1C0008D00E280AD00F280CD01DE014482149D9
:103D2C0008601CE013481F49086018E013481D493F
:103D3C00086014E00C481B4908601448006800280F
:103D4C0009D521480078002805D1114800684008A1
:103D5C0040000F49086002E003481249086001BDA9
:103D6C0000E100E080E200E010180020C0084000F4
:103D7C003418002058180020CE1845007C1800205C
:103D8C00FF18410010040E40401A0020CC190020EE
:103D9C00481A002000060E4000000940004009406F
:103DAC00008009404C1A0020E4190020441A00201D
:103DBC00501A0020381A0020541A0020581A0020DB
:103DCC003C1A00205C1A0020A21A0020785A080025
:103DDC0010B4DFF80023C0B20A2303FB0022D2790F
:103DEC00012A0CD1DFF8F022DFF8E832C0B20A2445
:103DFC0004FB00331B7A12EB8302110009E0B74A73
:103E0C00B44BC0B20A2404FB00331B7A12EB8302BE
:103E1C001100B34AC0B252F820200A600022AD4B08
:103E2C00C0B20A2404FB00331A7010BC704710B4E3
:103E3C00A84AC0B20A2303FB0022D279012A0AD174
:103E4C00A64AA44BC0B20A2404FB00331B7A12EB23
:103E5C008302110009E0A04A9E4BC0B20A2404FB65
:103E6C0000331B7A12EB830211009D4AC0B252F848
:103E7C0020200A600022974BC0B20A2404FB0033B6
:103E8C001A7010BC70479749924AC0B20A2303FBC0
:103E9C000022127A11EB82010A68914BC0B253F8DE
:103EAC0020305A400A6070472DE9F04182B04FF43F
:103EBC007A644FF4FA75601B1421B0FBF1F61427E9
:103ECC00FFB2002F2FD05FF014081FFA88F8B8F15A
:103EDC00000F0DD0844800680090012100A8FEF767
:103EEC00EFFA0028F9D000F043F8B8F10108ECE73C
:103EFC00FFB2142F05D1C82100A8FEF7E1FA002863
:103F0C00F9D00020C0B20B2809DAFFB2791E714A31
:103F1C00C0B20A2303FB00225180401CF2E7A41B11
:103F2C0075197F1ECCE700F023F8C82100A8FEF716
:103F3C00C7FA0028F9D00020C0B20B2804DA0021FF
:103F4C00644A1170401CF7E70820FFF741FF092075
:103F5C00FFF73EFF0A20FFF73BFF6448006850F074
:103F6C000100624908606248FEF714FBBDE8F3816A
:103F7C0010B50024E4B20B2C80F2AA805548E4B2B0
:103F8C000A2101FB04000078012872D15148E4B2E7
:103F9C000A2101FB0400B0F90200002804D1200022
:103FAC00C0B2FFF744FF5CE04A48E4B20A2101FBCF
:103FBC000400B0F90200142804D12000C0B2FFF7AD
:103FCC0007FF4EE04348E4B20A2101FB040080885D
:103FDC00401E4049E4B20A2202FB041188803D488D
:103FEC00E4B20A2101FB04008088002839D1394849
:103FFC00E4B20A2101FB0400807901281AD12000C7
:10400C00C0B2FFF714FF3348E4B20A2101FB0400ED
:10401C00B0F90200D0F114002E49E4B20A2202FBDE
:10402C000411888000202B49E4B20A2202FB0411FF
:10403C00887116E02000C0B2FFF7CAFE2548E4B232
:10404C000A2101FB040040882249E4B20A2202FB47
:10405C000411888001201F49E4B20A2202FB0411DA
:10406C00887101201B49E4B20A2202FB041108707A
:10407C002CE01848E4B20A2101FB04000078022865
:10408C0024D11448E4B20A2101FB04008088401EAC
:10409C001049E4B20A2202FB041188800D48E4B2F4
:1040AC000A2101FB0400808800280FD12000C0B237
:1040BC00FFF7E9FE0748E4B20A2101FB040040883F
:1040CC000449E4B20A2202FB04118880641C51E703
:1040DC0010BD000000000020300C0E40340C0E40CF
:1040EC0084010020380C0E40E4190020D019002067
:1040FC009402002062F30F2262F31F42401810F06A
:10410C00030308D0C91A1FD3DB0748BF00F8012DE1
:10411C0028BF20F8022D130030B414461546103970
:10412C0028BF20E93C00FAD8490728BF20E90C0039
:10413C0048BF40F8042D890028BF20F8022D48BF45
:10414C0000F8012D30BC7047C91818BF00F8012DBC
:10415C00CB0728BF00F8012D70470A0D012110F084
:10416C001F029140DFF8902740B2430942F8231018
:10417C007047012110F01F029140DFF8802740B2F8
:10418C00430942F823107047F8B504000D001600DF
:10419C008DF80050DFF868070078102801D1002056
:1041AC005CE000AA0121DFF85C070068001DFFF746
:1041BC0021FA0700002F50D00020DFF84C17DFF851
:1041CC004C271278120150540120DFF83C17DFF80D
:1041DC003C27127811EB02114860DFF82C07DFF84E
:1041EC002C17097810EB01100472DFF81C07DFF8AC
:1041FC001C17097810EB011086720020DFF80817E5
:10420C00DFF80827127811EB021148720020DFF852
:10421C00F816DFF8F826127811EB0211C860DFF8F7
:10422C00EC060078401CDFF8E4160870DFF8D006C6
:10423C000078401CDFF8C8160870DFF8D00600784C
:10424C00102803D10020DFF8C4160870DFF8C00670
:10425C000068002801D500F041F93800F2BD2DE9C5
:10426C00F04104000D0016001F00DFF894060078E2
:10427C00102801D100205DE032002900DFF884060F
:10428C000068001DFFF7B6F98046B8F1000F50D05A
:10429C000020DFF87416DFF87426127812015054DF
:1042AC000120DFF86416DFF86426127811EB021196
:1042BC004860DFF85406DFF85416097810EB01104B
:1042CC000472DFF84406DFF84416097810EB01108D
:1042DC0087720020DFF83016DFF83026127811EBE9
:1042EC00021148720020DFF82016DFF82026127821
:1042FC0011EB0211C860DFF814060078401CDFF8DF
:10430C000C160870DFF8F8050078401CDFF8F01583
:10431C000870DFF8F8050078102803D10020DFF8CA
:10432C00EC150870DFF8E8050068002801D500F0EE
:10433C00D5F84046BDE8F08110B51224DFF8D4055D
:10434C0000680121A1400843DFF8C815086000206F
:10435C00DFF8C4150860DFF8C405DFF8A81508609D
:10436C000020DFF8A81508700020DFF8B4150870DD
:10437C000020DFF88C150870DFF8A805DFF89C1515
:10438C0008600020DFF8941548600020DFF88C15D9
:10439C0088600020DFF88415C860DFF868050068C5
:1043AC000068006850F08000DFF85815096809684B
:1043BC000860DFF874050068DFF8701508600521E7
:1043CC00DFF86805FEF77CF80028F8D0DFF8600508
:1043DC00DFF830150968096808612420DFF8241516
:1043EC000968096808600020DFF818150968096871
:1043FC0048604FF4A170DFF80C1509680968486231
:10440C004FF63560DFF8FC140968096888622000F3
:10441C0040B2FFF7AEFE200040B2FFF79FFE002037
:10442C00DFF8101508600020DFF80C1508600FF29B
:10443C00A510DFF80815086010BD80B5DFF8FC0486
:10444C000068804701BD0120C0B200281DD0DFF8F4
:10445C00E4140968002918D0DFF8DC14096809781D
:10446C00DFF8A024126812685163DFF8CC140968D5
:10447C00491CDFF8C4241160DFF8B8140968491E20
:10448C00DFF8B0241160401EDEE7DFF8A8140968DD
:10449C0000291CD10421DFF86C2412681268916287
:1044AC00DFF86414DFF87824127811EB0211897AA2
:1044BC00002912D1DFF84C1409680968096851F019
:1044CC000201DFF8402412681268116005E0042133
:1044DC00DFF83024126812685162704780B5DFF83B
:1044EC003804006850F00100DFF82C140860DFF885
:1044FC0038040068DFF834140860DFF81C04007816
:10450C00C00709D5DFF83404006880470121DFF8C3
:10451C001C04FDF7D5FFF0E701BD10B5DFF8200452
:10452C0000680400DFF81C0400680440E00508D5AE
:10453C00DFF8E403006850F08070DFF8DC130860EB
:10454C0046E0A00731D5DFF8BC030068007B00070C
:10455C002BD5DFF8B00300680068006BDFF8A413FC
:10456C00096889680870DFF89C0300688068401C43
:10457C00DFF8901309688860DFF8B8030068401E04
:10458C00DFF8B0130860DFF8AC03006801281FD116
:10459C00DFF8700300680068006850F00200DFF874
:1045AC00641309680968086012E0600708D5DFF831
:1045BC0054030068007B800702D5FFF744FF07E037
:1045CC00DFF85403006850F00070DFF84C130860FB
:1045DC0010BD000080B5DFF834030078DFF840131D
:1045EC000978884200F096800020DFF818130968DB
:1045FC00096848602420DFF80C1309680968086012
:10460C00DFF80403DFF8181309780901085C0028A7
:10461C0032D1BC48006800684068BB49DFF8002311
:10462C00127811EB0211097A50EA0140B549096878
:10463C0009684860B348006840684068BD49086034
:10464C00B048006840680830BB490860FFF7FBFEC3
:10465C000221AC48006840680068FFF7B1F8A9482F
:10466C000068C06850F00600A6490968C8600FF2DF
:10467C00A900B249086044E0A348A9490978090196
:10468C00085C01283DD19F480068006840689D493E
:10469C000968096848609C48A149097810EB011029
:1046AC004068A449086098489D49097810EB0110AE
:1046BC00C0689449096888609E48006801280AD13E
:1046CC00904800680068006850F003008D49096844
:1046DC000968086009E08B4800680068006850F0C1
:1046EC000100884909680968086086480068C06844
:1046FC0050F0080083490968C8600FF2F1008F4937
:10470C0008608548006810F07F4F03D00FF25510F9
:10471C008A49086001BD000080B57B488049097852
:10472C0010EB0110807A002818D18248006800280C
:10473C0026D1744800680068006A400720D571488B
:10474C0000680068006AC0071AD56E480068C06827
:10475C0030F006006B490968C86011E075480068C4
:10476C0000280DD1674800680068006A400707D52B
:10477C0064480068C06830F0020062490968C8608B
:10478C0060480068007B800725D404215D480068E0
:10479C0040680068FFF714F85A480068001DFEF7DF
:1047AC00A6FF5D480068400840005B490860664809
:1047BC00624908605A480078401C594908705048B2
:1047CC000078401E4E49087055480078102802D1D8
:1047DC000020534908705048006810F07F4F03D0F8
:1047EC000FF281005549086001BD00005148006876
:1047FC0000282DD1434800680068006A800727D53F
:10480C00404800680068006AC00721D53D48006830
:10481C00C06830F008003B490968C8603E48006831
:10482C00400840003C4908604748444908603C48FF
:10483C000078401C3A49087031480078401E3049D5
:10484C00087037480078102802D1002034490870CD
:10485C003148006810F07F4F03D00FF20900374940
:10486C000860704780B52C480068C0013AD52648CE
:10487C002649097810EB0110407A401C2249234A42
:10488C00127811EB021148721F482049097810EB7D
:10489C000110407A032821D121480078401C20497E
:1048AC00087017480078401E154908701C4800789D
:1048BC00102802D100201A49087012480068007BA9
:1048CC0080070BD506210F48006840680068FEF78A
:1048DC0077FF0C480068001DFEF709FF002009490E
:1048EC000968C8600C4800680002000A0A490860A0
:1048FC0015481249086001BD00E100E080E200E0CB
:10490C00A11A0020001A0020901400209F1A0020E9
:10491C00CC19002010040E40FC1900201C1900209A
:10492C00A01A002000400840E4190020F8190020CB
:10493C001D1D0200041A0020081A0020F419002082
:10494C002C40084020400840E1450800DFF86C028C
:10495C00DFF86C1208600420DFF8681208604FF46E
:10496C00807099490860994899490860994800688D
:10497C00C007FBD5964800689749084394490860DE
:10498C00964897490860934800688007FBD54FF418
:10499C0000709449086042F21100934908608D48F8
:1049AC0000680007FBD542F212008F490860894865
:1049BC0000680007FBD58D48006850F444108B4903
:1049CC000860844800684006FBD570470020884981
:1049DC00086000208749086041F26F7086490860C2
:1049EC00002086490860032085490860704780B51F
:1049FC007F48006883490968401A012817D082480B
:104A0C000068401C804908608048006850F0200015
:104A1C007E4908607E480078800708D57D48FDF700
:104A2C00B9FD79480068FDF7D5FDFDF7C5FD704867
:104A3C000068744908607848006830F48010764942
:104A4C0008607648006830F00400744908606F48CC
:104A5C00006850F080406D4908606C480068400068
:104A6C0001D530BFF9E701BD6D486E4908606E484D
:104A7C006E490860704780B56D486E4908606E4895
:104A8C006E4908606E486F4908606F486F4908604E
:104A9C0000206F49086000206E4908606E486F491D
:104AAC0008605FF040506E4908606E486E490860BF
:104ABC006E486F4908607FF001006E490860012064
:104ACC006D4908605FF0F6406C49086000206C4945
:104ADC00086000206B49086000206B4908606B4837
:104AEC006B49086000206B4908606B486B49086093
:104AFC006B486C4908606C486C4908606C486D499F
:104B0C00086000206C49086000206C4908606C4803
:104B1C006C49086000206C49086000206B490860F3
:104B2C007FF07E406A4908606A486B4908604FF420
:104B3C00E0706A4908606A486A49086000206A495E
:104B4C0008600020694908600020694908606948CC
:104B5C006949086000206949086000F001F801BD4E
:104B6C005FF0011066490860002066490860032068
:104B7C006549086041F270706449086041F27070D8
:104B8C006349086042F6E0606249086042F6E06002
:104B9C006149086003206149086040F2DC506049BB
:104BAC00086040F2DC505F49086040F6B8305E495E
:104BBC00086040F6B8305D490860704773EDFC271B
:104BCC0010040E4040040E4000040E4019F0370053
:104BDC0020040E4068040E4000003701013F0720FE
:104BEC0028040E4000080E4030040E401C040E40F9
:104BFC00E4190020E819002014E000E018E000E0BF
:104C0C0010E000E0F0190020EC190020CC19002075
:104C1C00A81900201002002070040E4010ED00E0D6
:104C2C000005FF1F54120E40010000A550120E404B
:104C3C0007000384000C0E40F8FFFC7B040C0E40B4
:104C4C00F9D755BF100C0E400628AA40140C0E4084
:104C5C00200C0E40240C0E4000000188300C0E403D
:104C6C00340C0E4000060004500C0E40FFF9FFFB04
:104C7C00540C0E40600C0E40640C0E40700C0E4038
:104C8C00800C0E40840C0E408C0C0E40000001B4C5
:104C9C00A00C0E40A40C0E4057FFBF01000E0E409E
:104CAC0058004000040E0E40E0FFBF01100E0E40F5
:104CBC001F004000140E0E40200E0E40240E0E401D
:104CCC0000FEBF01300E0E40340E0E40500E0E4052
:104CDC00540E0E405FFEFF01600E0E40640E0E403F
:104CEC0018004000700E0E40800E0E40840E0E40D8
:104CFC008C0E0E40E0FF1F00A00E0E40A40E0E40C6
:104D0C0000C0084020C0084000C208400CC2084047
:104D1C0010C2084004C2084008C2084020C2084023
:104D2C002CC2084030C2084024C2084028C20840A7
:104D3C00012110F01F0291408D4A40B2430942F804
:104D4C0023107047012110F01F029140894A40B294
:104D5C00430942F82310704701008848085C012879
:104D6C0001D1012000E0002070470021834A8154CA
:104D7C00704738B5002400250020C0B204280DDA95
:104D8C000021804AC0B2815400217B4AC0B28154B8
:104D9C0000217D4AC0B28154401CEEE70020C0B215
:104DAC0004281ADA7949C0B211EB4001497800297C
:104DBC0005D17749C0B251F820100C430BE0734970
:104DCC00C0B211EB40014978802904D17049C0B2BE
:104DDC0051F820100D43401CE1E76E4804606E480A
:104DEC0005606E48006804006D48006805000A20E4
:104DFC00FFF7A8FF0B20FFF7A5FF0A20FFF798FF8E
:104E0C000B20FFF795FF0FF24D00664908606648CE
:104E1C00006850F00200644908606448FDF7BAFB72
:104E2C0031BD80B55F480068804701BD0200D2B239
:104E3C00042A0CDA5548D2B210EB42004078C9B2C1
:104E4C00884204D15248D2B250F8220000E000202F
:104E5C00704700000020C0B204280ADA4949C0B2E9
:104E6C00415C002903D00FF20D014E4A1160401C29
:104E7C00F1E7704770B54E484A4908600026F6B213
:104E8C00042E74DA4B484149F6B211EB46014978CD
:104E9C0010EB810004003F483C49F6B211EB46018F
:104EAC00497810EB810005003648F6B2305C0028DA
:104EBC005BD041483B49086019214048F6B210EBE1
:104ECC008600FDF7FDFA00284FD03048F6B210F8F6
:104EDC001600002811D12068C0432D49F6B251F8B4
:104EEC002610084204D001202749F6B2705414E071
:104EFC0000202549F6B270540FE020682449F6B220
:104F0C0051F82610084204D001201F49F6B2705403
:104F1C0003E000201C49F6B270541B48F6B2305C1A
:104F2C001549F6B2715C884214D01748F6B2305C61
:104F3C001149F6B270541048F6B2305C012809D110
:104F4C0001200E49F6B270541D4800680C49F6B2A7
:104F5C0041F8260000200B49F6B2705428680C4921
:104F6C00F6B251F8261008432860761C87E770BD0E
:104F7C0000E100E080E200E09C190020A419002070
:104F8C000C19002094190020A019002060030020A7
:104F9C00085C0800400C0E40400E0E404C0C0E40BD
:104FAC004C0E0E4098190020D01900201803002038
:104FBC00614E08003C0C0E40814E0800FC1800208D
:104FCC00E4190020012110F01F029140604A40B208
:104FDC00430942F823107047012110F01F02914041
:104FEC005C4A40B2430942F82310704710B588B0B0
:104FFC0000A859492022FDF791FA0020C0B20828D8
:10500C0009DA00A9C0B251F82010544AC0B242F8D3
:10501C002010401CF2E70024E4B21D2C09DA200019
:10502C0040B2FFF7CFFF200040B2FFF7D5FF641C62
:10503C00F2E708B010BD80B50020FEF7F8FE0320A3
:10504C00FEF7F5FE0120FEF7F2FE0620FEF7EFFE5E
:10505C000220FEF7ECFE0420FEF7E9FE0520FEF729
:10506C00E6FE0720FEF7B4FEFEE73D480068401C54
:10507C003B4908603B48006830F080403949086083
:10508C0039480088401E3849088037480088002875
:10509C0008D14FF47A703449088034480068401CB9
:1050AC00324908607047F8B531480068040014F4C0
:1050BC0000300500002D1CD00027FFB2042F18DA99
:1050CC0000213800C0B2FFF7B1FE060035420ED009
:1050DC002848006830432749086001202649FFB260
:1050EC0078541F4800682549FFB241F827007F1CFF
:1050FC00E3E70A20FFF770FFF1BDF8B52048006820
:10510C00040014F007000500002D1CD00027FFB28E
:10511C00042F18DA80213800C0B2FFF787FE060092
:10512C0035420ED0174800683043164908600120FC
:10513C001149FFB278540A4800681049FFB241F88F
:10514C0027007F1CE3E74FF4006002490860F1BDC3
:10515C0080E100E080E200E0585A080000E400E042
:10516C00E4190020CC19002090030020E81900203D
:10517C004C0C0E40440C0E4094190020FC180020DE
:10518C004C0E0E40440E0E4080B50220FEF74FFE32
:10519C000520FEF74CFE0720FEF749FE0120FEF726
:1051AC0046FE0FF21900DFF82011086001BD80B532
:1051BC00DFF814010068804701BD000010B5002421
:1051CC00DFF808010078042851DA0020FFF7C4FD4D
:1051DC00002810D00020DFF8F810DFF8F02012784B
:1051EC0050540020FFF7C1FDDFF8E0000078401CB0
:1051FC00DFF8D81008700120FFF7AEFD002810D0A2
:10520C000120DFF8CC10DFF8C420127850540120B4
:10521C00FFF7ABFDDFF8B4000078401CDFF8AC10F2
:10522C0008700220FFF798FD00280ED00220DFF84E
:10523C00A010DFF89820127850540220FFF795FD4B
:10524C0022480078401C214908700320FFF784FD98
:10525C0000280CD003201E491C4A127850540320FD
:10526C00FFF783FD19480078401C1849087017484F
:10527C000078032802D10720FEF7AAFD1548E4B2F6
:10528C00205C1349E4B2615C884207D1641C0120A4
:10529C0011490870E4B2042CF0DB02E000200E4946
:1052AC0008700D48007801280CD10C4800684FF4A8
:1052BC007A71B0FBF1F201FB1200002802D102203E
:1052CC00FEF7E1FD10BD00007C1A0020A31A00209F
:1052DC00801A00208C030020841A0020E41900207E
:1052EC00012110F01F0291403C4A40B2430942F8A0
:1052FC0023107047012110F01F029140384A40B230
:10530C00430942F82310704700B587B000A838490C
:10531C001922FDF7F3F8374837490860FF20374961
:10532C00086040F20110364908603648364908607A
:10533C003648374908600020C0B2082807D20FF25F
:10534C003D01294AC0B242F82010401CF4E701206C
:10535C00264908701A20FFF7CDFF1A20FFF7C0FF6F
:10536C0000A8FDF717F90FF2B9002A49086007B039
:10537C0000BD80B527480068804701BD704738B52F
:10538C000025EDB2032D21D2234800681549EDB25A
:10539C00695CC840C00717D520481249EDB2695C5A
:1053AC0050F821000400200080B20F490D4AEDB2E4
:1053BC00AA5C51F82210884701200A49EDB26956BF
:1053CC0088400E49086001E06D1CDAE701200749AE
:1053DC0008705FF080600249086031BD00E100E0B8
:1053EC0080E200E080030020C4180020961A002000
:1053FC00985A08000017040F04800A4014800A40D1
:10540C0064800A400100040068800A40FFFF0F001E
:10541C0028800A40441900201C800A4030800A4031
:10542C0070477047012110F01F0291402B4A40B287
:10543C00430942F823107047012110F01F029140DC
:10544C00274A40B2430942F82310704700B587B091
:10545C0000A825491522FDF751F824482449086075
:10546C002448254908602520244908601020244937
:10547C000860EF2023490860022023490860234874
:10548C00184908601720FFF7D7FF1720FFF7CAFF4E
:10549C000FF28D001E49086000A8FDF77BF81D482F
:1054AC00006850F020001B49086007B000BD80B5B3
:1054BC0017480068804701BD80B517480068C006D2
:1054CC0007D516480068401C144908600548006858
:1054DC0080475FF400000249086001BD00E100E074
:1054EC0080E200E0741A00208C5B080000081000B9
:1054FC000401084003C40C00440008405C00084050
:10550C006400084068000840400008402F54080020
:10551C00701A0020D019002060000840781A002072
:10552C007047000080B53148006850F000402F49AA
:10553C000860FFF799FAFFF79EFAFFF707FAFFF7F3
:10554C0055FDFFF743FAFEF7FDF8FEF765FAFDF798
:10555C00D3F8FFF77BFFFDF79BFCFEF7EDFEFFF7A3
:10556C00D3FE00F04DF8FEF79FFCFFF702FCFCF7B2
:10557C0047FA00F0B3F8FFF707FE00F00FF900F060
:10558C001BF9FDF77FF819480068400040081749DF
:10559C000860174817490860FEF7EAFCFFF741FC62
:1055AC00FEF7B8FAFFF783FFFDF7F1FCFEF745FFB6
:1055BC00FFF7DFFEFEF7FFF8FDF7FCF800F079F8D7
:1055CC00FCF7E6FA00F0D0F8FFF7F1FD00F0EBF88D
:1055DC0000F0F7F85FF0004007490860FFF707FAA2
:1055EC005FF0004005490860D3E700BFCC190020EC
:1055FC00010000A550120E40300C0E40340C0E4031
:10560C0000B589B000A82D490CC90CC00839083860
:10561C0002A82B491622FCF771FF0FF2BD00294995
:10562C0008604FF400702849086028480068284931
:10563C00086028212648FCF743FF0028F9D00122F6
:10564C0000213C20FEF7A0FD012300AA06213C20EE
:10565C00FEF705FE1D4800681D490860C8211C485E
:10566C00FCF72EFF0028F9D000220C213C20FEF77D
:10567C008BFD0820FEF7ACFB0920FEF7A9FB0A20E6
:10568C00FEF7A6FB012240213C20FEF77DFD002306
:10569C0002AA14213C20FEF7E2FD0C4800680C49DC
:1056AC0008600C48006850F008000A49086009B00E
:1056BC0000BD80B503480068804701BD445C08000C
:1056CC005C5B0800C4190020300E0E40E419002069
:1056DC00C8190020D01900207047000000B587B011
:1056EC0000A826491722FCF709FF002080B2B0F56C
:1056FC00097F05D20021204A80B28154401CF5E775
:10570C001D481F4908601C481E49086003201E499B
:10571C0008701E481C4948604FF480701A49886014
:10572C0015481949886116481749C8614FF4097022
:10573C001549088400201449087300201249487345
:10574C001148FDF7E9FA124908600FF229001149D6
:10575C00086000A8FCF71EFF0F48006850F080009E
:10576C000D49086007B000BD80B50A480068804745
:10577C0001BD000070470000940F0020745B08000E
:10578C00681A00206C1A0020A0180020000C0E4093
:10579C00641A0020601A0020D01900200FF21500A6
:1057AC0003490860704780B501480068804701BD17
:1057BC00881A0020704700000FF21500034908609A
:1057CC00704780B501480068804701BD8C1A0020E5
:1057DC00704700004C45440000000000000042559A
:1057EC0054544F4E00000000444542554700000001
:1057FC0000004C434400000000000000414E5400E7
:10580C0000000000000054494D455200000000000B
:10581C0053440000000000000000000000000000E5
:10582C00000000000A0D496E697469616C697A6147
:10583C0074696F6E20636F6D706C6574652E205487
:10584C0079706520656E2B63303020666F72206432
:10585C0065627567206D656E752E20204661696CDA
:10586C006564207461736B733A0A0D000A0D4E6FF8
:10587C0020737061636520696E20416E745175658B
:10588C0075654170706C69636174696F6E4D657399
:10589C00736167650A0D000010B50749794418312A
:1058AC00064C7C44163404E00A68081D51188847DD
:1058BC000146A142F8D110BD70010000900100001A
:1058CC00416E7454783A206D736720616C72656117
:1058DC00647920696E2070726F67726573730A0D3C
:1058EC000000000053686F77206465627567206361
:1058FC006F6D6D616E64206C6973742020202020A4
:10590C002020202000000000546F67676C65204C3D
:10591C0045442074657374202020202020202020F2
:10592C00202020202020202000000000546F6767DA
:10593C006C652073797374656D2074696D696E671D
:10594C00207761726E696E672020202000000000B5
:10595C0044756D6D793320202020202020202020BC
:10596C00202020202020202020202020202020202B
:10597C000000000044756D6D79342020202020201B
:10598C00202020202020202020202020202020200B
:10599C00202020200000000044756D6D79352020FA
:1059AC0020202020202020202020202020202020EB
:1059BC0020202020202020200000000044756D6D48
:1059CC00793620202020202020202020202020205C
:1059DC00202020202020202020202020000000003B
:1059EC0044756D6D79372020202020202020202028
:1059FC00202020202020202020202020202020209B
:105A0C00000000000A0D53797374656D2074696D84
:105A1C00652076696F6C6174696F6E207265706F4A
:105A2C007274696E672000004BCBFFFF10170000EB
:105A3C0094030020000000005BCAFFFF94030000E9
:105A4C00000200000000002000000000F000F0F058
:105A5C0000F0F0F0F0F05050503030F0F0F020F05A
:105A6C0020F0004040F0F0F0F01000000A0D55411D
:105A7C00525420636F756E746572206F7574206F4D
:105A8C00662073796E630A0D0000000041444331B7
:105A9C0032207461736B20696E697469616C697A08
:105AAC0065640A0D000000000D0A414E5420657813
:105ABC00706563746564206D7367206661696C0A38
:105ACC000D0000000A0A0D417661696C61626C651B
